{
  "_format": "hh-sol-artifact-1",
  "contractName": "Vaccination",
  "sourceName": "contracts/Vaccination.sol",
  "abi": [
    {
      "inputs": [],
      "stateMutability": "nonpayable",
      "type": "constructor"
    },
    {
      "anonymous": false,
      "inputs": [
        {
          "indexed": true,
          "internalType": "uint256",
          "name": "vaccineId",
          "type": "uint256"
        },
        {
          "indexed": false,
          "internalType": "string",
          "name": "vaccineName",
          "type": "string"
        },
        {
          "indexed": false,
          "internalType": "string",
          "name": "manufacturer",
          "type": "string"
        },
        {
          "indexed": false,
          "internalType": "uint256",
          "name": "manufacturingDate",
          "type": "uint256"
        },
        {
          "indexed": false,
          "internalType": "string",
          "name": "batchNumber",
          "type": "string"
        },
        {
          "indexed": false,
          "internalType": "address",
          "name": "customerAddress",
          "type": "address"
        }
      ],
      "name": "VaccineAdded",
      "type": "event"
    },
    {
      "inputs": [
        {
          "internalType": "uint256",
          "name": "vaccineId",
          "type": "uint256"
        },
        {
          "internalType": "string",
          "name": "_vaccineName",
          "type": "string"
        },
        {
          "internalType": "string",
          "name": "_manufacturer",
          "type": "string"
        },
        {
          "internalType": "uint256",
          "name": "_manufacturingDate",
          "type": "uint256"
        },
        {
          "internalType": "string",
          "name": "_batchNumber",
          "type": "string"
        },
        {
          "internalType": "uint256",
          "name": "_qty",
          "type": "uint256"
        },
        {
          "internalType": "address",
          "name": "_customerAddress",
          "type": "address"
        }
      ],
      "name": "addVaccine",
      "outputs": [],
      "stateMutability": "nonpayable",
      "type": "function"
    },
    {
      "inputs": [
        {
          "internalType": "uint256",
          "name": "_vaccineId",
          "type": "uint256"
        }
      ],
      "name": "getVaccineDetails",
      "outputs": [
        {
          "internalType": "string",
          "name": "",
          "type": "string"
        },
        {
          "internalType": "string",
          "name": "",
          "type": "string"
        },
        {
          "internalType": "uint256",
          "name": "",
          "type": "uint256"
        },
        {
          "internalType": "string",
          "name": "",
          "type": "string"
        },
        {
          "internalType": "uint256",
          "name": "",
          "type": "uint256"
        },
        {
          "internalType": "address",
          "name": "",
          "type": "address"
        }
      ],
      "stateMutability": "view",
      "type": "function"
    },
    {
      "inputs": [],
      "name": "owner",
      "outputs": [
        {
          "internalType": "address",
          "name": "",
          "type": "address"
        }
      ],
      "stateMutability": "view",
      "type": "function"
    },
    {
      "inputs": [],
      "name": "vaccineCount",
      "outputs": [
        {
          "internalType": "uint256",
          "name": "",
          "type": "uint256"
        }
      ],
      "stateMutability": "view",
      "type": "function"
    },
    {
      "inputs": [
        {
          "internalType": "uint256",
          "name": "",
          "type": "uint256"
        }
      ],
      "name": "vaccines",
      "outputs": [
        {
          "internalType": "string",
          "name": "vaccineName",
          "type": "string"
        },
        {
          "internalType": "string",
          "name": "manufacturer",
          "type": "string"
        },
        {
          "internalType": "uint256",
          "name": "manufacturingDate",
          "type": "uint256"
        },
        {
          "internalType": "string",
          "name": "batchNumber",
          "type": "string"
        },
        {
          "internalType": "uint256",
          "name": "quantity",
          "type": "uint256"
        },
        {
          "internalType": "address",
          "name": "customerAddress",
          "type": "address"
        }
      ],
      "stateMutability": "view",
      "type": "function"
    }
  ],
  "bytecode": "0x608060405234801561001057600080fd5b50336000806101000a81548173ffffffffffffffffffffffffffffffffffffffff021916908373ffffffffffffffffffffffffffffffffffffffff160217905550610ec5806100606000396000f3fe608060405234801561001057600080fd5b50600436106100575760003560e01c8063201ab0271461005c578063300e88bd146100785780638da5cb5b146100ad578063bcc39188146100cb578063dcb7b1b714610100575b600080fd5b61007660048036038101906100719190610a47565b61011e565b005b610092600480360381019061008d9190610b3d565b610318565b6040516100a496959493929190610c10565b60405180910390f35b6100b561050c565b6040516100c29190610c86565b60405180910390f35b6100e560048036038101906100e09190610b3d565b610530565b6040516100f796959493929190610c10565b60405180910390f35b6101086107b0565b6040516101159190610ca1565b60405180910390f35b60008054906101000a900473ffffffffffffffffffffffffffffffffffffffff1673ffffffffffffffffffffffffffffffffffffffff163373ffffffffffffffffffffffffffffffffffffffff16146101ac576040517f08c379a00000000000000000000000000000000000000000000000000000000081526004016101a390610d2e565b60405180910390fd5b6040518060c001604052808781526020018681526020018581526020018481526020018381526020018273ffffffffffffffffffffffffffffffffffffffff1681525060016000898152602001908152602001600020600082015181600001908051906020019061021e9291906107b6565b50602082015181600101908051906020019061023b9291906107b6565b506040820151816002015560608201518160030190805190602001906102629291906107b6565b506080820151816004015560a08201518160050160006101000a81548173ffffffffffffffffffffffffffffffffffffffff021916908373ffffffffffffffffffffffffffffffffffffffff160217905550905050600260008154809291906102ca90610d7d565b9190505550867f5a2b8d76da2131ee632bcf8c87b4dda8768025e9352a22e2234b8be8954efe138787878786604051610307959493929190610dc6565b60405180910390a250505050505050565b600160205280600052604060002060009150905080600001805461033b90610e5d565b80601f016020809104026020016040519081016040528092919081815260200182805461036790610e5d565b80156103b45780601f10610389576101008083540402835291602001916103b4565b820191906000526020600020905b81548152906001019060200180831161039757829003601f168201915b5050505050908060010180546103c990610e5d565b80601f01602080910402602001604051908101604052809291908181526020018280546103f590610e5d565b80156104425780601f1061041757610100808354040283529160200191610442565b820191906000526020600020905b81548152906001019060200180831161042557829003601f168201915b50505050509080600201549080600301805461045d90610e5d565b80601f016020809104026020016040519081016040528092919081815260200182805461048990610e5d565b80156104d65780601f106104ab576101008083540402835291602001916104d6565b820191906000526020600020905b8154815290600101906020018083116104b957829003601f168201915b5050505050908060040154908060050160009054906101000a900473ffffffffffffffffffffffffffffffffffffffff16905086565b60008054906101000a900473ffffffffffffffffffffffffffffffffffffffff1681565b606080600060606000806000600160008981526020019081526020016000206040518060c001604052908160008201805461056a90610e5d565b80601f016020809104026020016040519081016040528092919081815260200182805461059690610e5d565b80156105e35780601f106105b8576101008083540402835291602001916105e3565b820191906000526020600020905b8154815290600101906020018083116105c657829003601f168201915b505050505081526020016001820180546105fc90610e5d565b80601f016020809104026020016040519081016040528092919081815260200182805461062890610e5d565b80156106755780601f1061064a57610100808354040283529160200191610675565b820191906000526020600020905b81548152906001019060200180831161065857829003601f168201915b505050505081526020016002820154815260200160038201805461069890610e5d565b80601f01602080910402602001604051908101604052809291908181526020018280546106c490610e5d565b80156107115780601f106106e657610100808354040283529160200191610711565b820191906000526020600020905b8154815290600101906020018083116106f457829003601f168201915b50505050508152602001600482015481526020016005820160009054906101000a900473ffffffffffffffffffffffffffffffffffffffff1673ffffffffffffffffffffffffffffffffffffffff1673ffffffffffffffffffffffffffffffffffffffff16815250509050806000015181602001518260400151836060015184608001518560a001519650965096509650965096505091939550919395565b60025481565b8280546107c290610e5d565b90600052602060002090601f0160209004810192826107e4576000855561082b565b82601f106107fd57805160ff191683800117855561082b565b8280016001018555821561082b579182015b8281111561082a57825182559160200191906001019061080f565b5b509050610838919061083c565b5090565b5b8082111561085557600081600090555060010161083d565b5090565b6000604051905090565b600080fd5b600080fd5b6000819050919050565b6108808161086d565b811461088b57600080fd5b50565b60008135905061089d81610877565b92915050565b600080fd5b600080fd5b6000601f19601f8301169050919050565b7f4e487b7100000000000000000000000000000000000000000000000000000000600052604160045260246000fd5b6108f6826108ad565b810181811067ffffffffffffffff82111715610915576109146108be565b5b80604052505050565b6000610928610859565b905061093482826108ed565b919050565b600067ffffffffffffffff821115610954576109536108be565b5b61095d826108ad565b9050602081019050919050565b82818337600083830152505050565b600061098c61098784610939565b61091e565b9050828152602081018484840111156109a8576109a76108a8565b5b6109b384828561096a565b509392505050565b600082601f8301126109d0576109cf6108a3565b5b81356109e0848260208601610979565b91505092915050565b600073ffffffffffffffffffffffffffffffffffffffff82169050919050565b6000610a14826109e9565b9050919050565b610a2481610a09565b8114610a2f57600080fd5b50565b600081359050610a4181610a1b565b92915050565b600080600080600080600060e0888a031215610a6657610a65610863565b5b6000610a748a828b0161088e565b975050602088013567ffffffffffffffff811115610a9557610a94610868565b5b610aa18a828b016109bb565b965050604088013567ffffffffffffffff811115610ac257610ac1610868565b5b610ace8a828b016109bb565b9550506060610adf8a828b0161088e565b945050608088013567ffffffffffffffff811115610b0057610aff610868565b5b610b0c8a828b016109bb565b93505060a0610b1d8a828b0161088e565b92505060c0610b2e8a828b01610a32565b91505092959891949750929550565b600060208284031215610b5357610b52610863565b5b6000610b618482850161088e565b91505092915050565b600081519050919050565b600082825260208201905092915050565b60005b83811015610ba4578082015181840152602081019050610b89565b83811115610bb3576000848401525b50505050565b6000610bc482610b6a565b610bce8185610b75565b9350610bde818560208601610b86565b610be7816108ad565b840191505092915050565b610bfb8161086d565b82525050565b610c0a81610a09565b82525050565b600060c0820190508181036000830152610c2a8189610bb9565b90508181036020830152610c3e8188610bb9565b9050610c4d6040830187610bf2565b8181036060830152610c5f8186610bb9565b9050610c6e6080830185610bf2565b610c7b60a0830184610c01565b979650505050505050565b6000602082019050610c9b6000830184610c01565b92915050565b6000602082019050610cb66000830184610bf2565b92915050565b7f4f6e6c7920746865206f776e65722063616e20706572666f726d20746869732060008201527f616374696f6e0000000000000000000000000000000000000000000000000000602082015250565b6000610d18602683610b75565b9150610d2382610cbc565b604082019050919050565b60006020820190508181036000830152610d4781610d0b565b9050919050565b7f4e487b7100000000000000000000000000000000000000000000000000000000600052601160045260246000fd5b6000610d888261086d565b91507fffffffffffffffffffffffffffffffffffffffffffffffffffffffffffffffff821415610dbb57610dba610d4e565b5b600182019050919050565b600060a0820190508181036000830152610de08188610bb9565b90508181036020830152610df48187610bb9565b9050610e036040830186610bf2565b8181036060830152610e158185610bb9565b9050610e246080830184610c01565b9695505050505050565b7f4e487b7100000000000000000000000000000000000000000000000000000000600052602260045260246000fd5b60006002820490506001821680610e7557607f821691505b60208210811415610e8957610e88610e2e565b5b5091905056fea2646970667358221220971f55725fdd80c28baaad19b7d80ed60c079052bdf90e81a02d5653c89c83ac64736f6c634300080a0033",
  "linkReferences": {},
  "deployedLinkReferences": {}
}